:0600000033EFDEF01200F8
:08000800046ED8CF05F0E0CF33
:1000100006F00001E9CF0CF0EACF07F0E1CF08F0DD
:10002000E2CF09F0D9CF0AF0DACF0BF0F3CF12F01C
:10003000F4CF13F0FACF14F0F5CF15F0F6CF16F099
:10004000F7CF17F0F8CF18F0FBCF19F000C00EF083
:1000500001C00FF002C010F003C011F0A0A234EFF5
:1000600000F0A1B2DCEF09F09DA03AEF00F09EB0E5
:1000700077EF09F0F2A840EF00F0F2B2DDEF0AF0FE
:10008000F0A646EF00F0F0B00EEF0BF09DAA4CEF9B
:1000900000F09EBA25EF0BF00EC000F00FC001F08B
:1000A00010C002F011C003F00CC0E9FF07C0EAFF66
:1000B000078E08C0E1FF09C0E2FF0AC0D9FF0BC0EC
:1000C000DAFF12C0F3FF13C0F4FF14C0FAFF15C02B
:1000D000F5FF16C0F6FF17C0F7FF18C0F8FF19C0EC
:1000E000FBFF045006C0E0FF05C0D8FF1000F76A10
:1000F000020FF66E010EF722000EF86E0900F550A1
:1001000012007F00DC00FE00F76A1C0FF66E010E85
:10011000F722000EF86E0900F55012006009C012B7
:100120008025004B009600E1F76A3C0FF66E010E49
:10013000F722000EF86E0900F550120005000A00C3
:100140000F00140019001E00280032003C004B0074
:100150005000640078007D009600C800FA002C0171
:100160005E019001F4015802BC02EE022003E80394
:10017000B004E204DC054006D007C409B80B800CCB
:10018000A00F88137017F76A9A0FF66E010EF72208
:10019000000EF86E0900F5501200342D4F63742DD7
:1001A00032320000F76AB80FF66E010EF722000E29
:1001B000F86E0900F550120031343A34323A3332D5
:1001C0000000F76AD60FF66E010EF722000EF86EE9
:1001D0000900F5501200535438353030432D563253
:1001E0002E585840303030312E420000F76A000F50
:1001F000F66E020EF722000EF86E0900F55012009E
:100200003838060CF76A180FF66E020EF722000E49
:10021000F86E0900F5501200010303030303030104
:10022000F76A340FF66E020EF722000EF86E090020
:10023000F55012001018181818181810F76A500FF7
:10024000F66E020EF722000EF86E0900F55012004D
:100250001F1F000000000000F76A6C0FF66E020E10
:10026000F722000EF86E0900F550120000000000A1
:1002700000001F1FF76A880FF66E020EF722000EAD
:10028000F86E0900F55012001F1F00000000001F4B
:10029000F76AA40FF66E020EF722000EF86E090040
:1002A000F55012001F00000000001F1FF76AC00F6A
:1002B000F66E020EF722000EF86E0900F5501200DD
:1002C0001F00000000000000F76ADC0FF66E020E4F
:1002D000F722000EF86E0900F55012000000000031
:1002E0000000001FF76AF80FF66E020EF722000EEC
:1002F000F86E0900F550120000020201F76A100FB3
:10030000F66E030EF722000EF86E0900F55012008B
:1003100000030301F76A280FF66E030EF722000EA2
:10032000F86E0900F550120020002020F76A400FF7
:10033000F66E030EF722000EF86E0900F55012005B
:1003400020040401F76A580FF66E030EF722000E20
:10035000F86E0900F550120000050520F76A700FCD
:10036000F66E030EF722000EF86E0900F55012002B
:1003700020050501F76A880FF66E030EF722000EBE
:10038000F86E0900F550120000070701F76AA00F88
:10039000F66E030EF722000EF86E0900F5501200FB
:1003A00020060601F76AB80FF66E030EF722000E5C
:1003B000F86E0900F550120000040420F76AD00F0F
:1003C000F66E030EF722000EF86E0900F5501200CB
:1003D00000050501F76AE80FF66E030EF722000E1E
:1003E000F86E0900F550120020020201F76A000FB2
:1003F000F66E040EF722000EF86E0900F55012009A
:1004000020202001F76A180FF66E040EF722000E66
:10041000F86E0900F5501200000404012E0FF66E6C
:10042000040EF722000EF86E0900F550120020208D
:1004300020202020202020202020202020200053A9
:100440002054203820352030203020432F544300C2
:100450004E403A404040402E4020563A402E4040C8
:1004600000204D65642E20456C657472696361736C
:10047000200020204520522052204F2021212121E0
:1004800021200046616C74612053696E616C2052BA
:10049000455021002020204F636F7272656E6369A2
:1004A00061732020002050726F6772616D61204778
:1004B0006572616C200050726F6772616D612020FF
:1004C0004361726761730050726F6772616D612082
:1004D000416C61726D65730050726F6772616D611E
:1004E000204465736C696761002020204D616E7542
:1004F00074656E63616F20202000202020496E7398
:1005000074616C6163616F20202000506F742E490C
:100510006E73743A40404040406B57004E726F20FB
:100520006465204361726761733A202000202020B7
:1005300020205573756172696F20202020004D6165
:10054000782E43617267613A404040406B570053D8
:1005500065742D706F696E743A404040406B57006F
:100560004163696F6E616D656E746F3A2020207310
:100570000043617267612040403A20202020206BB8
:100580005700542E43617267612040403A2020207A
:1005900020730044656D2E41746976613A202020F5
:1005A000404025004163696F6E61646F3A204040AE
:1005B00040406B570054656E2E202856293A202063
:1005C000202020202000436F722E202841293A202D
:1005D0002020202020200020202046726571756593
:1005E0006E63696120202000506F742E6B572020AD
:1005F000202020202020202000506F742E6B564198
:1006000020202020202020202000506F742E6B56A8
:100610004172202020202020202000467472204398
:1006200072673A2020202020202025004674722066
:10063000446D643A202020202020202500466C7440
:100640002E6B5641723A2020202020202000457831
:10065000632E6B5641723A2020202020202000205B
:10066000202020202020202020487A202020200028
:1006700044656D2E436F6E742E4D65733A20404075
:1006800000506F6E74613A20202040404040406B23
:100690005700462E506F6E74613A204040404040F3
:1006A0006B5700202041706167616E646F212121CA
:1006B000202020005469706F204C69676163616F6E
:1006C0003A20202000456E642E204D6F64627573C1
:1006D0003A20202020004261756420526174653AFE
:1006E00020202020202000465020496E6475746927
:1006F000766F3A20202020004650204361706163CD
:1007000069742E3A202020200054656E73616F209A
:10071000416C74613A202020250053756220546595
:100720006E73616F3A2020202025002020506572D2
:10073000696F646F205345434F202000492E40408D
:100740002F404020462E40402F40402000442E2085
:100750004D65642E206B573A202020202000442E27
:100760002050726A2E206B573A2020202020005003
:10077000726F672E204E616F204175746F722E006C
:100780002050726F672E204C69626572616461202F
:100790000040404040402053656D204C696D6974B5
:1007A0006500204C6967612043617267613A2020CF
:1007B000202000204465736C2043617267613A20F9
:1007C00020202000442E4D642E206B5641723A208A
:1007D0002020202000442E506A2E206B5641723A71
:1007E00020202020200046503A20202020202020B9
:1007F00020202020202000486F726172696F2064E1
:100800006520506F6E746100416A75737465205283
:10081000656C6F67696F212100492E40403A404066
:1008200020462E40403A404020002020202F20200B
:100830002F20202020203A202020002020202020AF
:1008400020202520202020202020250054656D70A8
:100850006F202043617267613A2020200041636964
:100860006F6E612043617267613A20202000202072
:1008700020202020202020486F726173202000203B
:10088000202020202020202056657A65732020001B
:100890002046696D204F636F7272656E6369617384
:1008A00000526567697374726F20204E6F726D61BC
:1008B0006C0054656E7320416C74612046617365F1
:1008C00020520054656E7320416C74612046617340
:1008D0006520530054656E7320416C74612046613D
:1008E000736520540054656E20426169786120462A
:1008F00061736520520054656E2042616978612001
:100900004661736520530054656E204261697861C9
:1009100020466173652054004D53472D4F434F527D
:100920002D37342D46524545004D53472D4F434FEB
:10093000522D37352D46524545004D53472D4F43D7
:100940004F522D37362D4652454500436F72722067
:10095000416C74612046617365205200436F72726E
:1009600020416C74612046617365205300436F72AF
:100970007220416C74612046617365205400202010
:1009800046502020496E64757469766F20200020DF
:10099000465020204361706163697469766F20005E
:1009A000202044656D616E646120414C54412020DB
:1009B0000020544320496E7665727469646F20523A
:1009C000200020544320496E7665727469646F205C
:1009D00053200020544320496E7665727469646F19
:1009E00020542000205365712E20496E7665727464
:1009F00069646120004D53472D4F434F522D3837C6
:100A00002D46524545005472616E736D6973736172
:100A10006F205265672E005472616E736D69737337
:100A2000616F204F636F7200566F6C746120646554
:100A300020456E65726769610020202020202052C9
:100A400065736574202020202000496E6963696FFA
:100A50002020526567697374726F002046696E6169
:100A60006C20526567697374726F200020416A754B
:100A70007374652064652044617461200020202027
:100A800041706167616D656E746F20202000507247
:100A90006F6772616D61205465636C61646F0050B3
:100AA000726F67204E616F204175746F72697A00B2
:100AB00046616C746120646520456E65726769618A
:100AC000004D53472D4F434F522D39392D46524536
:100AD00045004D53472D4F434F522D313030465234
:100AE0004545004D53472D4F434F522D3130314630
:100AF000524545004D53472D4F434F522D31303213
:100B00004652454500526573657420646F20416C00
:100B100061726D652000202054656E73616F202026
:100B2000416C7461202000202054656E73616F2039
:100B3000426169786120200020436F7272656E7493
:100B4000652020416C74612000202046616C746136
:100B500020466173652052202000202046616C747D
:100B60006120466173652053202000202046616C7F
:100B70007461204661736520542020002020466166
:100B80006C746120204661736573202000436F728E
:100B900072656E7465204261697861205200436F0E
:100BA0007272656E746520426169786120530043FA
:100BB0006F7272656E7465204261697861205400BD
:100BC00020436F7272656E7465204261697861209E
:100BD00000202054726F63612054656E73616F2032
:100BE000200020506F74656E6369612020416C7431
:100BF000612000506F74656E63696120416C74619F
:100C000020205200506F74656E63696120416C74DE
:100C10006120205300506F74656E63696120416CE0
:100C20007461202054002020436F6469676F204C5A
:100C30006F63616C20200020526567697374726F66
:100C400020546573746520004F636F7272656E6324
:100C500069613A20202020200020446174612065D1
:100C600020486F726172696F200020446174613A9C
:100C70002020202F20202F2020200020486F72616C
:100C80003A20202020203A20202020002054656E89
:100C900073616F20437269746963612000436F72EE
:100CA00072656E7465204372697469636100202007
:100CB000202020546162656C6120202020200020CB
:100CC0004D656D6F7269613A2031204E4F4B2100A6
:100CD0004465736C2E20706F722054656E73616F63
:100CE000002020204C696D7061204F636F72722E5E
:100CF00020002020202A2043616E63656C617220F1
:100D000020200020205A6572617220436172676161
:100D100020202000436F7272656E746520437269F3
:100D200074696361002020202020537461747573FE
:100D300020202020200020442D3F3F3A3F3F204CE0
:100D40002D3F3F3A3F3F004465736163696F6E61B9
:100D50003A20202020207300404040404040404046
:100D600040402028522920200020202853292020DC
:100D7000202020202854292020006B57683A20206A
:100D800020202020202020202020006B5641726847
:100D90003A202020202020202020200020206B2E00
:100DA000206B57683A202020202020200020206B34
:100DB0002E6B564172683A2020202020200054617A
:100DC000723A20202054656D706F3A202020005028
:100DD0003A2020202020202F20202020202020000A
:100DE00046503A2020202020202020404040402013
:100DF00000556C742E50206B573A20202020202064
:100E00002000556C742E50206B5641723A202020E1
:100E1000202000204552524F20435243202D20498C
:100E200055212000436172676120656D20726570F5
:100E30006F75736F00556C742E6B573A202020200D
:100E4000202020202000556C742E6B5641723A20D1
:100E500020202020202000506572696F646F205090
:100E60006F6E746120202000506572696F646F207E
:100E7000462E506F6E746120004D53475F313535FB
:100E80002D4C4976726520202000202050726F740E
:100E90006F636F6C6F204955202000202020205266
:100EA00045503A2020202020202020004D6F646FE4
:100EB0002043617267613A2040402D4000546970C0
:100EC0006F20646520436F6E74726F6C65002046FE
:100ED000696C612053657175656E6369616C002092
:100EE0002046696C612043697263756C61722000F1
:100EF00020506572696F646F20506F6E746120209E
:100F0000004D53475F3136332D4C497672652020B2
:100F10002000506572696F646F20462E20506F6EFE
:100F20007461004D53475F3136352D4C49767265FB
:100F30002020200046616C74612050756C736F2016
:100F40005245502000566F6C74612050756C736F61
:100F50002052455020004572726F20436F6E7374AB
:100F60002E6B57682020004572726F20436F6E739E
:100F7000742E6B564172680056616C6F7220544338
:100F80003A20202020202F350056616C6F722054AB
:100F9000503A20202020202020004D6F646F2041F7
:100FA00063696F6E616D656E746F004D6F646F2065
:100FB00053616964617320494E5620004D6F646F20
:100FC00020536169646173204E4F524D0054455364
:100FD0005445204D454D2020202020202000454E06
:100FE000443A2020202020202020202020200046BD
:100FF000494D3A20202020202020202020202000A1
:10100000F76A140FF66E100EF722000EF86E090044
:10101000F550120042434445464748494A4B4C4D1F
:101020004E4F505152535455565758595A5B5C5D68
:101030005E5F606162636465666768696A6B6C6D58
:101040006E6F70717273747576777852FFFFA2A31A
:10105000A4A5A6A7F76A680FF66E100EF722000E79
:10106000F86E0900F55012004135F76A7E0FF66EF2
:10107000100EF722000EF86E0900F550120000C1A4
:10108000814001C0804101C0804100C1814001C058
:10109000804100C1814000C1814001C0804101C048
:1010A000804100C1814000C1814001C0804100C138
:1010B000814001C0804101C0804100C1814001C028
:1010C000804100C1814000C1814001C0804100C118
:1010D000814001C0804101C0804100C1814000C108
:1010E000814001C0804101C0804100C1814001C0F8
:1010F000804100C1814000C1814001C0804101C0E8
:10110000804100C1814000C1814001C0804100C1D7
:10111000814001C0804101C0804100C1814000C1C7
:10112000814001C0804101C0804100C1814001C0B7
:10113000804100C1814000C1814001C0804100C1A7
:10114000814001C0804101C0804100C1814001C097
:10115000804100C1814000C1814001C0804101C087
:10116000804100C1814000C1814001C0804100C177
:10117000814001C0804101C0804100C18140F76AC7
:10118000920FF66E110EF722000EF86E0900F55060
:10119000120000C0C101C30302C2C60607C705C5CD
:1011A000C404CC0C0DCD0FCFCE0E0ACACB0BC9098F
:1011B00008C8D81819D91BDBDA1A1EDEDF1FDD1D9F
:1011C0001CDC14D4D515D71716D6D21213D311D1CF
:1011D000D010F03031F133F3F23236F6F737F5351F
:1011E00034F43CFCFD3DFF3F3EFEFA3A3BFB39F94F
:1011F000F83828E8E929EB2B2AEAEE2E2FEF2DED1F
:10120000EC2CE42425E527E7E62622E2E323E1218E
:1012100020E0A06061A163A3A26266A6A767A5659E
:1012200064A46CACAD6DAF6F6EAEAA6A6BAB69A90E
:10123000A86878B8B979BB7B7ABABE7E7FBF7DBD1E
:10124000BC7CB47475B577B7B67672B2B373B1714E
:1012500070B050909151935352929656579755951E
:1012600094549C5C5D9D5F9F9E5E5A9A9B5B9959CE
:101270005898884849894B8B8A4A4E8E8F4F8D4D9E
:101280004C8C44848545874746868242438341810E
:10129000804053616D706C696E673A0D0A000D0AEB
:1012A000496E707574203D20202566205620202030
:1012B000202025662064420D0A0041000000006BDA
:1012C000572020006B564120006B56417200487A2F
:1012D00020200056616320005072696E7461722094
:1012E00052455020545255452121210D0A003C0EF3
:1012F000CF6EB00ECE6E00000401202B272B1F8C6A
:10130000225301E022070301BB5301E0BB070501A3
:101310001D5301E01D07375201E03706240E016E10
:10132000C250830B0110C26E000E016EC150F80B4B
:101330000110C16E0400420E006E002EFED7C28264
:10134000C2B2FED7C4CF33F0C3CF32F00301F107EE
:10135000F1532DE1190EF16F1E8CF22B24A604D04F
:101360000801847303D00301080184930301F22D63
:1013700005D01E8E080184711BD00301F2510208B2
:1013800002E11F8014D0F25103080BE108018471BF
:101390001F820301B75301E0B707B85301E0B80754
:1013A00006D0F251040802E1F26B01D0F26B0801A1
:1013B0009E9000014CEF00F00301C62B21A606D041
:1013C000F90EB36EE50EB26E000005D0FA0EB36EE4
:1013D000EA0EB26E00001F8E1EB6EBD020B603D010
:1013E000BB53D8A4E6D00201955343E1180E016E19
:1013F000C250830B0110C26E000E016EC150F80B7B
:101400000110C16E0400420E006E002EFED7D8906F
:1014100004010B35036A340FE96E050E0320EA6EF2
:10142000C282C2B2FED7C3CFEFFFC4CFECFF000E23
:10143000016EC250830B0110C26E000E016EC150CE
:10144000F80B0110C16E0400420E006E002EFED794
:10145000D8900C35036AB60FE96E050E0320EA6ECC
:10146000C282C2B2FED7C3CFEFFFC4CFECFF8FD092
:101470000201952D43D01C0E016EC250830B01104A
:10148000C26E000E016EC150F80B0110C16E040057
:10149000420E006E002EFED7D89004010B35036A71
:1014A000380FE96E060E0320EA6EC282C2B2FED782
:1014B000C3CFEFFFC4CFECFF040E016EC250830B0D
:1014C0000110C26E000E016EC150F80B0110C16E0A
:1014D0000400420E006E002EFED7D8900C35036A31
:1014E0003C0FE96E070E0320EA6EC282C2B2FED73D
:1014F000C3CFEFFFC4CFECFF4AD0020195510208E1
:1015000043E1200E016EC250830B0110C26E000E2B
:10151000016EC150F80B0110C16E0400420E006E46
:10152000002EFED7D89004010B35036ABA0FE96E7E
:10153000060E0320EA6EC282C2B2FED7C3CFEFFF0F
:10154000C4CFECFF080E016EC250830B0110C26EB7
:10155000000E016EC150F80B0110C16E0400420E66
:10156000006E002EFED7D8900C35036ABE0FE96ED0
:10157000070E0320EA6EC282C2B2FED7C3CFEFFFCE
:10158000C4CFECFF04D002011E86956904010B2B29
:101590000C2B0C51400801E10C6B0B51400808E189
:1015A0001E8620960B6BB7C40CF40201952B040128
:1015B0000301A19200014CEF00F00401262B21B49D
:1015C00011D01DC41FF41CC41EF4CE501C6FCFCF0D
:1015D0001DF420C421F4206B2151020802E3218272
:1015E00001D021922082030E0301BB6F1EB601D0F1
:1015F0002086C6C3C5F3CE500A01986F0101FE5183
:101600000A01985D006E0101FF51CF5800C0FCF146
:101610000101FD6FF29200014CEF00F0CE5001018C
:10162000FE6FCFCFFFF10301C66BF09000014CEFCE
:1016300000F09EAAFED7ABCF1BF0AECF01F01BA2ED
:1016400002D0AB98AB883AEF0BF008018485050E09
:10165000586E040E05011D6F3051302B036A400F88
:10166000E96E080E0320EA6EEACF9BFAE9CF9AFAF8
:101670000001DFD79BCAEAFF9ACAE9FF01C0EFFF6A
:101680000501322B3251080803E10301B16B05015A
:1016900030511F0802E2306B326B9E9A00014CEF12
:1016A00000F084C872F096988D9872C08CFF96985E
:1016B0008D88969E8D9E100E8C6E969E8D8E6C5390
:1016C00013E185C872F0721F969A8D9A72C08CFFD2
:1016D000969A8D8A86C872F0721F969C8D9C72C0F5
:1016E0008CFF969C8D8C10D085C872F0969A8D9A3E
:1016F00072C08CFF969A8D8A86C872F0969C8D9CDB
:1017000072C08CFF969C8D8C12000A015D51036E95
:101710005C515C2BD8B45D2B606F03C061FAF2CFD3
:1017200062FAF29E61CA63FF60CA62FF7F9C7F9E7D
:101730007F80615062BFF28E5E6FF2CF60FAF29EE0
:101740005DCA63FF5CCA62FF7F9C7F9E7F806150A1
:1017500060BFF28E5F6F5ECA03F05FCA01F003C024
:1017600002F0000112000401C35160080DE1C451F0
:1017700009080AE16586460EAF6E100ED46EA60EFD
:10178000AC6E900EAB6E54D0C351C0080DE1C45185
:1017900012080AE16586220EAF6E080ED46EA60E00
:1017A000AC6E900EAB6E44D0C35180080DE1C451B5
:1017B00025080AE16586110EAF6E040ED46EA60EE2
:1017C000AC6E900EAB6E34D0C3530DE1C4514B08D8
:1017D0000AE16586080EAF6E020ED46EA60EAC6EE0
:1017E000900EAB6E25D0C3530BE1C451960808E1AF
:1017F0006596400EAF6EA60EAC6E900EAB6E18D016
:10180000C3530DE1C451E1080AE16586AD0EAF6E28
:10181000000ED46EA60EAC6E900EAB6E09D065862F
:10182000080EAF6E020ED46EA60EAC6E900EAB6EAE
:10183000000112000A0EEA6E670EE96EEF5011E029
:101840000C0E016EBF0E006E0400002EFDD7012E9F
:10185000F9D7F70E006E002EFED700000400EF2E21
:10186000EFD712000A01652D12D096968D869692BA
:101870008D82000066CA8CFF000096928D9296962B
:101880008D960400A60E006E002EFED711D09696FF
:101890008D9696928D82000066CA8CFF000096920B
:1018A0008D9296968D86020E676F0001C3DF0A0146
:1018B000000112000A014A6B4A5103080EE3036A51
:1018C0004A510001F6EC00F00A014B6F656B666F40
:1018D0000001C8DF0A014A2BEFD7656B400E666F27
:1018E0000001C0DF0A014A6B4A51070810E3036A8E
:1018F0004A51000102EC01F00A014B6F010E656FC5
:101900004BCA66FA0001AEDF0A014A2BEDD74A6BDB
:101910004A51070810E3036A4A51000110EC01F034
:101920000A014B6F010E656F4BCA66FA00019ADF20
:101930000A014A2BEDD74A6B4A51070810E3036AA4
:101940004A5100011EEC01F00A014B6F010E656F58
:101950004BCA66FA000186DF0A014A2BEDD74A6BB3
:101960004A51070810E3036A4A5100012CEC01F0C8
:101970000A014B6F010E656F4BCA66FA000172DFF8
:101980000A014A2BEDD74A6B4A51070810E3036A54
:101990004A5100013AEC01F00A014B6F010E656FEC
:1019A0004BCA66FA00015EDF0A014A2BEDD74A6B8B
:1019B0004A51070810E3036A4A51000148EC01F05C
:1019C0000A014B6F010E656F4BCA66FA00014ADFD0
:1019D0000A014A2BEDD74A6B4A51070810E3036A04
:1019E0004A51000156EC01F00A014B6F010E656F80
:1019F0004BCA66FA000136DF0A014A2BEDD74A6B63
:101A00004A51070810E3036A4A51000164EC01F0EF
:101A10000A014B6F010E656F4BCA66FA000122DFA7
:101A20000A014A2BEDD7000112000A01656B010E75
:101A3000666F000117DF020E0A01676F0001FADE10
:101A400012000801886B00011200FBDF12000A017E
:101A50007A51036E7951792BD8B47A2B7F6F03C0FA
:101A600080FAF2CF81FAF29E80CA63FF7FCA62FFDA
:101A70007F9C7F9E7F80615081BFF28E7B6F7A5109
:101A8000036E7951792BD8B47A2B7F6F03C080FA1B
:101A9000F2CF81FAF29E80CA63FF7FCA62FF7F9C09
:101AA0007F9E7F80615081BFF28E7C6F7A51036E82
:101AB0007951792BD8B47A2B7F6F03C080FAF2CF9B
:101AC00081FAF29E80CA63FF7FCA62FF7F9C7F9E7D
:101AD0007F80615081BFF28E7D6FF2CF7FFAF29EE0
:101AE0007ACA63FF79CA62FF7F9C7F9E7F806150C4
:101AF0007FBFF28E7E6F7BCA03F07CCA02F07DCA84
:101B000001F07ECA00F0000112000A017A51036E52
:101B10007951792BD8B47A2B7F6F03C080FA7ECAB3
:101B200082FA836B846B856BF250006EF29E80CAE2
:101B300063FF7FCA62FF82CA61FF7F9C7F9E7F84B2
:101B40000F01550E7E6EAA0E7E6E7F827FB2FED78B
:101B50007F940050F2120A017A51036E7951792B69
:101B6000D8B47A2B7F6F03C080FA7DCA82FA7ECA0E
:101B700083FA846B856BF250006EF29E80CA63FF1D
:101B80007FCA62FF82CA61FF7F9C7F9E7F840F01B4
:101B9000550E7E6EAA0E7E6E7F827FB2FED77F9438
:101BA0000050F2120A017A51036E7951792BD8B4A0
:101BB0007A2B7F6F03C080FA7CCA82FA7DCA83FACF
:101BC0007ECA84FA856BF250006EF29E80CA63FF73
:101BD0007FCA62FF82CA61FF7F9C7F9E7F840F0164
:101BE000550E7E6EAA0E7E6E7F827FB2FED77F94E8
:101BF0000050F212F2CF00F0F29E7ACA63FF79CA67
:101C000062FF7BCA61FF7F9C7F9E7F84550E7E6E44
:101C1000AA0E7E6E7F827FB2FED77F940050F212B2
:101C200000011200F2CF67FAF29E66CA63FF65CA2E
:101C300062FF7F9C7F9E7F8061500A0167BFF28EAA
:101C4000016E00011200F250006EF29E68CA63FF3E
:101C500067CA62FF69CA61FF7F9C7F9E7F840F0114
:101C6000550E7E6EAA0E7E6E7F827FB2FED77F9467
:101C70000050F212000112006D5303E06D51100884
:101C800019E2030E0A01666F130E656F0001CADFC9
:101C900001C06DF06D5303E06D5110080BE2100EA2
:101CA0006D6F030E0A01686F130E676F100E696F78
:101CB0000001C9DF120026980A016551F00FD8B063
:101CC00085D0100F000123EF0FF0080185A102D08D
:101CD000859126880A017AD00001080185A302D0E7
:101CE000859326880A0172D00001080185A502D0DB
:101CF000859526880A016AD00001080185A702D0CF
:101D0000859726880A0162D00001080185A902D0C2
:101D1000859926880A015AD00001080185AB02D0B6
:101D2000859B26880A0152D00001080185AD02D0AA
:101D3000859D26880A014AD00001080185AF02D09E
:101D4000859F26880A0142D00001080186A102D0A1
:101D5000869126880A013AD00001080186A302D0A4
:101D6000869326880A0132D00001080186A502D098
:101D7000869526880A012AD00001080186A702D08C
:101D8000869726880A0122D00001080186A902D080
:101D9000869926880A011AD00001080186AB02D074
:101DA000869B26880A0112D00001080186AD02D068
:101DB000869D26880A010AD00001080186AF02D05C
:101DC000869F26880A0102D000010A0126A839D080
:101DD0006BC068F06BC069F0036A6551F70F016E64
:101DE000000E032203C068FA036A6551E70FE96E2B
:101DF000000E0320EA6EEFCF69FA68CAEAFF01C05D
:101E0000E9FF69CAEFFF65CA86F0036A6551170FDB
:101E1000E96E010E0320EA6EEF6A85C866FA686B08
:101E20004A0E676F66CA69FA00010DDF86C866FA56
:101E30000A01686B4B0E676F66CA69FA000103DF1F
:101E40000A0100011200E824F76AF736670FF66E00
:101E50001E0EF722000EF86EFB6E0A00F550FA6EA9
:101E60000800F550F96ECA1CDA1CEA1CFA1C0A1D9F
:101E70001A1D2A1D3A1D4A1D5A1D6A1D7A1D8A1DEA
:101E80009A1DAA1DBA1D010E0A017A6F040E796F00
:101E90000001DDDD03C02FF402C02EF401C02DF4DB
:101EA00000C02CF4010E0A017A6F080E796F000150
:101EB000CEDD03C02BF402C02AF401C029F400C017
:101EC00028F404012C3D16D02D3D14D02E3D12D007
:101ED0002F3D10D02F6B2E6B2D6B2C6B010E0A013A
:101EE0007A6F040E796F7E6B7D6B7C6B7B6B000170
:101EF0000CDE0401283D16D0293D14D02A3D12D015
:101F00002B3D10D02B6B2A6B296B286B010E0A011D
:101F10007A6F080E796F7E6B7D6B7C6B7B6B00013B
:101F2000F4DD0401010E0A017A6F0C0E796F0001D5
:101F30008EDD03C04DFA02C04CFA01C04BFA00C05E
:101F40004AFA0A01003C11D04B3D0FD04C3D0DD058
:101F50004D3D0BD0010E7A6F0C0E796F7E6B7D6B51
:101F60007C6B7B6B0001D1DD0A01010E7A6F100ED4
:101F7000796F00016CDD03C04DFA02C04CFA01C05C
:101F80004BFA00C04AFA0A01003C11D04B3D0FD079
:101F90004C3D0DD04D3D0BD0010E7A6F100E796F78
:101FA0007E6B7D6B7C6B7B6B0001AFDD0A01030EEA
:101FB000666F130E656F000135DE01C06DF05CDEEB
:101FC000020E0A015D6F810E5C6F000185EC0BF063
:101FD00002C066F001C065F00A01666B4F0E656FC6
:101FE000000120DE01C084F0020E0301636FF30ED6
:101FF000626F020E656FDA0E646FB16B00016D5196
:102000000301B15DD8B0DBD0036AB151070F016E97
:10201000010E032201C04AFA03C04BFA030163C355
:1020200003F06251622BD8B4632B0A014C6F03C0DA
:102030004DFA03C066FA656F0001F4DD4BCAEAFF92
:102040004ACAE9FF01C0EFFF036A0301B151E70F7C
:10205000016E000E032201C04AFA03C04BFA0301CD
:1020600065C303F06451642BD8B4652B0A014C6F2F
:1020700003C04DFA03C066FA656F0001D3DD4BCA99
:10208000EAFF4ACAE9FF01C0EFFF036A0301B15149
:10209000170FE96E010E0320EA6EEF6A036AB15171
:1020A000270FE96E010E0320EA6EEF6AB1C365FAED
:1020B000000101DE036A0301B151590F016E010EE7
:1020C000032201C04AFA03C04BFA500E0301B125A6
:1020D0000A014C6F666B656F0001A4DD4BCAEAFF15
:1020E0004ACAE9FF01C0EFFF036A0301B1516A0F59
:1020F000016E010E032201C04AFA03C04BFA600EC2
:102100000301B1250A014C6F666B656F00018ADD22
:102110004BCAEAFF4ACAE9FF01C0EFFF036A0301A5
:10212000B1517B0F016E010E032201C04AFA03C0B8
:102130004BFA700E0301B1250A014C6F666B656F97
:10214000000170DD4BCAEAFF4ACAE9FF01C0EFFF98
:10215000036A0301B1518C0F016E010E032201C00D
:102160004AFA03C04BFA800E0301B1250A014C6FF5
:10217000666B656F000156DD4BCAEAFF4ACAE9FF8C
:1021800001C0EFFF036A0301B1519D0F016E010E03
:10219000032201C04AFA03C04BFA900E0301B12595
:1021A0000A014C6F666B656F00013CDD4BCAEAFFAC
:1021B0004ACAE9FF01C0EFFF0301B12B1FD7636BD0
:1021C000626BB16BB1510B0850E3D890B135036A23
:1021D000DB0F016E040E032201C04AFA03C04BFA62
:1021E000160E030162250A014C6F030E03016321E1
:1021F0000A014D6F5D6F4CCA5CFA000185EC0BF073
:102200004BCAEAFF4ACAE9FF02C0ECFFED5201C027
:10221000EFFFD8900301B135036AF50F016E040E8C
:10222000032201C04AFA03C04BFA2E0E03016225B5
:102230000A014C6F030E030163210A014D6F5D6FAC
:102240004CCA5CFA000185EC0BF04BCAEAFF4ACAA3
:10225000E9FF02C0ECFFED5201C0EFFF020E0301E7
:102260006227000E6323B12BADD7030E0A015D6F09
:10227000DC0E5C6F000185EC0BF002C010F501C0B4
:102280000FF5030E0A01666FDF0E656F0001CADCF1
:1022900001C012F5030E0A01666FDE0E656F0001C4
:1022A000C1DC01C011F5030E0A01666FE00E656F17
:1022B0000001B8DC01C013F5030E0A01666FE10EE0
:1022C000656F0001AFDC01C014F50A01666B3A0EC0
:1022D000656F0001A7DC01C015F50A01666B3C0EB5
:1022E000656F00019FDC01C017F50A01666B3B0EAC
:1022F000656F000197DC01C016F50A01666B3D0EA3
:10230000656F00018FDC01C018F50A01666B4C0E89
:10231000656F000187DC01C06CF029EF13F002014A
:10232000196B186B176B166B1D6B1C6B1B6B1A6B89
:10233000036B026B016B006BAF6BAE6BAD6BAC6B89
:10234000B36BB26BB16BB06B996B986B976B966B11
:1023500003010A6B096B086B076B066B056B046B5B
:10236000036B0201F06BEF6BEE6BED6B00019EEF08
:1023700013F00201096B086B076B066B0D6B0C6B9E
:102380000B6B0A6B9F6B9E6B9D6B9C6BF66BF56B7F
:10239000F46BF36BA36BA26BA16BA06BFA6BF96B85
:1023A000F86BF76B04010A6B096B000112005FCA3E
:1023B00060FA0A015D51036E5C515C2BD8B45D2B51
:1023C000616F03C062FAF250006EF29E62CA63FF50
:1023D00061CA62FF60CA61FF7F9C7F9E7F840F019C
:1023E000550E7E6EAA0E7E6E7F827FB2FED77F94E0
:1023F0000050F2125ECA60FAF2CF00F0F29E5DCA9F
:1024000063FF5CCA62FF60CA61FF7F9C7F9E7F841E
:10241000550E7E6EAA0E7E6E7F827FB2FED77F94AF
:102420000050F212000112001FAC08D01FAE06D0FF
:1024300020A004D01F9C1F9E2090040012000201C7
:102440006D6B6C6B6B6B6A6B656B646B676B666BF0
:102450000401556B546B536B526B596B586B576B34
:10246000566B5D6B5C6B5B6B5A6B0301B16BB1516F
:102470003A082AE31F8C1F8E2080D890B135900F28
:102480000A014A6F010E4B6FD8B04B2B4BCA5DFA55
:102490004ACA5CFA5F6B5E6B000189DFD89003016A
:1024A000B135080F0A014A6F020E4B6FD8B04B2BA3
:1024B0004BCA5DFA4ACA5CFA5F6B5E6B000177DF5C
:1024C000B3DF0301B12BD3D7F46B010EF36F04011B
:1024D000756B746B776B766B796B786B7B6B7A6BE8
:1024E0007D6B7C6B7F6B7E6B816B806B0201776B8E
:1024F000766B04016F6B6E6B716B706B736B726BD1
:102500000201796B786B000112000401396B386BA2
:102510003D6B3C6B3B6B3A6B416B406B3F6B3E6B77
:10252000456B446B436B426B496B486B476B466B27
:102530004D6B4C6B4B6B4A6B516B506B4F6B4E6BD7
:102540006D6B6C6B6B6B6A6B2F6B2E6B2D6B2C6BCF
:10255000376B366B356B346B616B606B5F6B5E6BCF
:10256000656B646B636B626B2B6B2A6B296B286BDF
:10257000336B326B316B306B00011200F2CF4DFACE
:10258000F29E4BCA63FF4ACA62FF7F9C7F9E7F8098
:1025900061500A014DBFF28E4E6F4ECA00F04C5191
:1025A000016E04E0D8900032012EFCD7000E00B07E
:1025B000010E016E0001E5EF12F0030E0A014B6FF0
:1025C000810E4A6F4C6B0001D9D7269C01B0268C36
:1025D000030E0A01666F820E656F000112EC0EF0A9
:1025E00001C036F0030E0A01666F830E656F0001AD
:1025F00012EC0EF001C03AF01200209A299A3C0E1B
:102600000301F56F2C96229E239023922394239608
:10261000239C2298229C279A279C279E28902892C8
:1026200028942398239A28962898279627982692C4
:1026300026942794269A249421922194219600018D
:10264000BCDF120003015C6B5B6B5E6B5D6B0001BA
:102650001AD4856B866B20860301BB6B1E961E9871
:10266000616B209C04010B6B0C6B20982C9C02016D
:10267000956B0301606B0201116B106B0F6B0E6B9E
:10268000156B146B136B126B2D6B2C6B2B6B2A6BF6
:10269000516B506B536B526B596B586B5D6B5C6B32
:1026A0005B6B5A6B040E636F626BF00E4E6F04012E
:1026B000246B236B256B0201A76BA66BA56BA46B28
:1026C000AB6BAA6BA96BA86BC36BC26BC16BC06B06
:1026D000FE6BFD6BFC6BFB6B0301026B016B006B14
:1026E0000201FF6B03011A6B196B186B176B020168
:1026F000D56BD46B03012C6B2B6B0201D76BD66BA4
:1027000003012E6B2D6B0201DD6BDC6B0301346B5F
:10271000336B0201E16BE06B0301386B376B020135
:10272000DF6BDE6B0301366B356B040E0201E36F6A
:10273000E26B03013A6F396B0001F1D50201316B95
:10274000306B2F6B2E6B256B246B236B226B216BF5
:10275000206B1F6B1E6B296B286B276B266B196B0D
:10276000186B176B166B1D6B1C6B1B6B1A6B036B5B
:10277000026B016B006BC76BC66BC56BC46B03014F
:102780001E6B1D6B1C6B1B6B0201B76BB66BB56BC5
:10279000B46BBB6BBA6BB96BB86BBF6BBE6BBD6B0D
:1027A000BC6B03010E6B0D6B0C6B0B6B126B116B27
:1027B000106B0F6B166B156B146B136B0201AF6B09
:1027C000AE6BAD6BAC6B03010A6B096B086B076BEF
:1027D0000201B36BB26BB16BB06B0301066B056B9F
:1027E000046B036B0201996B986B976B966BF06BA4
:1027F000EF6BEE6BED6B299C2A9A2A9C2B902B9207
:102800002A942A962A982B902B922B942B962B98CD
:102810002B9A2B9C2A942B9E299A3C0E316E140ED7
:10282000376E356A366A3A6A2C902C82020E0301A2
:10283000C86FC76B4B6A4A6A496A486A000199DDEA
:10284000FEDD63DE0301B16BB1513F084DE30001D2
:10285000EBDDD8900301B135036A340FE96E050E44
:102860000320EA6E080EEC6EED52EF6AD890B13597
:10287000036AB60FE96E050E0320EA6E080EEC6ED1
:10288000ED52EF6AD890B135036A380FE96E060E43
:102890000320EA6E080EEC6EED52EF6AD890B13567
:1028A000036A3C0FE96E070E0320EA6E080EEC6E19
:1028B000ED52EF6AD890B135036ABA0FE96E060E91
:1028C0000320EA6E080EEC6EED52EF6AD890B13537
:1028D000036ABE0FE96E070E0320EA6E080EEC6E67
:1028E000ED52EF6AB12BB0D7080EE26FE16BE46FE7
:1028F000E36BE66FE56BE86FE76BEA6FE96BEC6F34
:10290000EB6B0401166B156B146B136B1A6B196B65
:10291000186B176B000171DE020E2F6E0A0E2E6E01
:10292000DCEFDEF08E0E006E7ECA01F07DCA02F092
:10293000036A015209E102C001F0026A080E005E5A
:10294000015202E1006A08D0D89001BE04D00236DC
:1029500001360006F9D7019E12000A018051D8B451
:10296000A5D08C6F8451D8B4A1D08C5F05E37F0EC5
:102970008C27D8B09BD006D0810E8C5FD8A096D083
:10298000D8B494D08CCA00F0016A026A036A8B6BD7
:1029900081CA8AFA8A8F82CA89FA83CA88FA190E8A
:1029A0008C6F8751885F0DE2010E895F0AE28A5FB2
:1029B00008E28B5F06E28B2B8A2B892B87518827B5
:1029C00028D08651895F12E2010E8A5F0FE28B5F89
:1029D0000DE28B2B8A2B865189278751882719E393
:1029E000892B17E18A2B15E18B2B13D08551800998
:1029F0008A5F0EE2010E8B5F0BE28B2B8551800903
:102A00008A2786518927E9E38A2BE7E18B2BE5D7D3
:102A100003808C2F01D00BD0D890883789378A3724
:102A20008B37D8900336023601368D37BAD78DA151
:102A300006D0D8900132023203328D3302D0000624
:102A400035E08DBF1ED0D890883789378A378B37CD
:102A50008751885F07E2010E895F04E28A5F02E224
:102A60008B5F1AE38651895F05E2010E8A5F02E2FD
:102A70008B5F12E3855180098A5F03E2010E8B5F51
:102A80000BE3032A09E1022A07E1012A05E1002AF2
:102A90000DE001320232033281CA8CFA85518C1B5F
:102AA0008CAF02D0018E06D0019E04D0006A016A6C
:102AB000026A036A000112000A014C6B4C5124089F
:102AC00042E3D8904C35036A000194EC00F0090011
:102AD000F5CF03F00A014D6F03C04EFA0401BF5158
:102AE0000A014D5D2EE10401C0510A014E5D29E14C
:102AF000C0C47EFABFC47DFA000114DF03C051F3E5
:102B000002C050F301C04FF300C04EF351C383FA2B
:102B100050C382FA4FC381FA4EC380FA0A01876B11
:102B2000866B7A0E856F870E846F000116DF03C0F7
:102B300051F302C050F301C04FF300C04EF30A013D
:102B400002D04C2BBBD7000112005F0E0401CB6FEB
:102B50000A01686B0A0E676FCBC469FA000123ECA7
:102B60000EF00401BE6BDC0EBD6F0A015D6B110E31
:102B70005C6FBEC45FFABDC45EFA000118DC010ED2
:102B80000401C06FF40EBF6F000196DF0A015D6B98
:102B9000130E5C6F010E5F6FF40E5E6F000107DCB9
:102BA0000401C26B010EC16F0A015D6B2B0E5C6FDD
:102BB0005F6B010E5E6F0001D7EC11F00A0E04018D
:102BC000B16F0A01686B0B0E676FB1C469FA00013F
:102BD00023EC0EF00A0E0401B26F0A01686B0B0EB3
:102BE000676FB2C469FA000123EC0EF00A0E04010B
:102BF000B36F0A01686B0D0E676FB3C469FA000109
:102C000023EC0EF00A0E0401AB6F0A01686B0E0E86
:102C1000676FABC469FA000123EC0EF00A0E0401E1
:102C2000AC6F0A01686B0F0E676FACC469FA0001E4
:102C300023EC0EF00A0E0401AD6F0A01686B100E52
:102C4000676FADC469FA000123EC0EF00401B76BA5
:102C50000A01686B060E676FB7C469FA000123ECBE
:102C60000EF0010E0401CD6F0A01686B2A0E676F2A
:102C7000010E696F000123EC0EF04B0E0401C46FCE
:102C8000C36B0A01686B2D0E676FC3C469FA00013C
:102C900023EC0EF0010E0401CE6F0A01686B260EC4
:102CA000676F010E696F000123EC0EF0010E040145
:102CB000C66F2C0EC56F0A015D6B270E5C6F010E8F
:102CC0005F6F2C0E5E6F0001D7EC11F00F0E040148
:102CD000CF6F0301F46BF36F0A01686B290E676F06
:102CE0000F0E696F000123EC0EF0550E0401D06F3A
:102CF0000A01686B1C0E676F550E696F000123ECAB
:102D00000EF0550E0401D16F0A01686B1D0E676F3E
:102D1000550E696F000123EC0EF00401D26B0A011D
:102D2000686B1E0E676F696B000123EC0EF00401E7
:102D3000D36B0A01686B1F0E676F696B000123EC90
:102D40000EF0640E0401D46F0A01686B200E676FE9
:102D5000640E696F000123EC0EF00401D76B0A01C9
:102D6000686B3F0E676F696B000123EC0EF0040186
:102D7000D56B0A01686B210E676F696B000123EC4C
:102D80000EF00401D66B0A01686B220E676F696B47
:102D9000000123EC0EF00401DA6BCC6B0A01686BC6
:102DA0002F0E676F010E696F000123EC0EF0040116
:102DB000C76B0A01686B3E0E676F696B000123ECFD
:102DC0000EF0080E6D6F030E0A01686F130E676F29
:102DD000080E696F000123EC0EF0666BFA0E656F4A
:102DE000020E0A015D6F810E5C6F5F6BFA0E5E6F03
:102DF0000001D7EC11F0050E646F020E0A01686F36
:102E0000820E676F050E696F000123EC0EF0010E54
:102E1000676F2782020E0A01686F850E676F010EC9
:102E2000696F000123EC0EF01E0E6A6F020E0A019C
:102E3000686F830E676F1E0E696F000123EC0EF042
:102E4000050E6B6F020E0A01686F840E676F050E28
:102E5000696F000123EC0EF0020E0401D96F0A0124
:102E6000686FEE0E676F020E696F000123EC0EF0C3
:102E7000640E5D6E020E0A01686FED0E676F640EE0
:102E8000696F000123EC0EF0596A020E0A01686FA7
:102E9000EA0E676F696B000123EC0EF05A6A020EAE
:102EA0000A01686FEF0E676F696B000123EC0EF08B
:102EB0005B6A020E0A01686FEB0E676F696B0001B7
:102EC00023EC0EF05C6A020E0A01686FEC0E676F6D
:102ED000696B000123EC0EF00301B16BB1510F08D7
:102EE00036E3F30EB125ED6F020EEE6FD8B0EE2B88
:102EF000036AB151070FE96E010E0320EA6E640EFA
:102F0000EF6EEEC368FAEDC367FA0A01696F00015C
:102F100023EC0EF0DA0E0301B125ED6F020EEE6F19
:102F2000D8B0EE2B036AB151E70FE96E000E032013
:102F3000EA6EB40EEF6EEEC368FAEDC367FA0A01EB
:102F4000696F000123EC0EF00301B12BC7D700011C
:102F500021EC0DF012000301B16BB1510F08D8A0A4
:102F6000AAD0036AB151A70F016E000E032201C05F
:102F70004AFA03C04BFA8A0E0301B1250A014C6FCD
:102F8000020E4D6FD8B04D2B4DCA66FA4CCA65FA89
:102F9000000112EC0EF04BCAEAFF4ACAE9FF01C079
:102FA000EFFFD8900301B135036A870F016E000E61
:102FB000032201C04AFA03C04BFAD8900301B1358D
:102FC0009A0F0A014C6F020E4D6FD8B04D2B4DCAAF
:102FD0005DFA4CCA5CFA000185EC0BF04BCAEAFFC3
:102FE0004ACAE9FF02C0ECFFED5201C0EFFFD890E2
:102FF0000301B135036AC70F016E000E032201C041
:103000004AFA03C04BFAD8900301B135BA0F0A014E
:103010004C6F020E4D6FD8B04D2B4DCA5DFA4CCAA5
:103020005CFA000185EC0BF04BCAEAFF4ACAE9FFE3
:1030300002C0ECFFED5201C0EFFF036A0301B15182
:10304000E70F016E000E032201C04AFA03C04BFADB
:10305000DA0E0301B1250A014C6F020E4D6FD8B094
:103060004D2B4DCA66FA4CCA65FA000112EC0EF0FF
:103070004BCAEAFF4ACAE9FF01C0EFFF036A030136
:10308000B151F70F016E000E032203C04BFA036A21
:103090000301B151E70FE96E000E0320EA6EEFCF96
:1030A0004CFA0A014BCAEAFF01C0E9FF4CCAEFFF24
:1030B0000301B12B52D7000149EF19F00A015D6BF2
:1030C000110E5C6F000185EC0BF002C0BEF401C074
:1030D000BDF40A015D6B130E5C6F000185EC0BF013
:1030E00002C0C0F401C0BFF40401BD3D09D0BE530D
:1030F00007E1BF3D05D0C05303E1000126DD040117
:103100000001DADC0A015D6B2B0E5C6F000185ECBF
:103110000BF002C0C2F401C0C1F4010E0401C66F7D
:103120002C0EC56F0A015D6B2D0E5C6F000185ECE6
:103130000BF002C0C4F401C0C3F40A01666B0E0EAA
:10314000656F000112EC0EF001C0ABF40A01666B72
:10315000150E656F000112EC0EF001C0AEF40A010D
:10316000666B060E656F000112EC0EF001C0B7F43D
:103170000A01666B070E656F000112EC0EF001C0CC
:10318000B8F40A01666B180E656F000112EC0EF0C0
:1031900001C0BBF40A01666B460E656F000112ECBC
:1031A0000EF001C0B4F40A01666B0F0E656F0001EA
:1031B00012EC0EF001C0ACF40A01666B100E656FE4
:1031C000000112EC0EF001C0ADF40A01666B160EA0
:1031D000656F000112EC0EF001C0AFF40A01666BDE
:1031E000170E656F000112EC0EF001C0B0F40A0179
:1031F000666B070E656F000112EC0EF001C0B8F4AB
:103200000A01666B080E656F000112EC0EF001C03A
:10321000B9F40A01666B470E656F000112EC0EF0FF
:1032200001C0B5F40A01666B480E656F000112EC2F
:103230000EF001C0B6F40A01666B260E656F000140
:1032400012EC0EF001C0CEF40A01666B0A0E656F37
:10325000000112EC0EF001C0CBF40A01666B290EDE
:10326000656F000112EC0EF001C0CFF40401CF51E4
:103270000F080CE00F0ECF6F0A01686B290E676F05
:103280000F0E696F000123EC0EF00401576A000174
:1032900062D60A01666B2A0E656F000112EC0EF011
:1032A00001C0CDF4010E0401CC6F0A01666B3E0E25
:1032B000656F000112EC0EF001C0C7F40A01666BE5
:1032C0003A0E656F000112EC0EF001C015F50A010F
:1032D000666B3C0E656F000112EC0EF001C017F535
:1032E0000A01666B3B0E656F000112EC0EF001C027
:1032F00016F50A01666B3D0E656F000112EC0EF0CB
:1033000001C018F50A01666B400E656F000112ECF2
:103310000EF001C0A7F40A01666B1C0E656F000178
:1033200012EC0EF001C0D0F40A01666B1D0E656F41
:10333000000112EC0EF001C0D1F40A01666B1E0E02
:10334000656F000112EC0EF001C0D2F40A01666B49
:103350001F0E656F000112EC0EF001C0D3F40A01DC
:10336000666B200E656F000112EC0EF001C0D4F404
:103370000A01666B3F0E656F000112EC0EF001C092
:10338000D7F40A01666B210E656F000112EC0EF096
:1033900001C0D5F40A01666B220E656F000112ECC4
:1033A0000EF001C0D6F40A01666B420E656F000193
:1033B00012EC0EF001C0D8F4020E0A01666FEE0E98
:1033C000656F000112EC0EF001C0D9F4020E0A0183
:1033D000666FEA0E656F000112EC0EF001C059F045
:1033E000020E0A01666FEF0E656F000112EC0EF01F
:1033F00001C05AF0020E0A01666FEB0E656F000104
:1034000012EC0EF001C05BF0020E0A01666FEC0ECA
:10341000656F000112EC0EF001C05CF0020E0A01B3
:10342000666FED0E656F000112EC0EF001C05DF0ED
:10343000020E0A01666F830E656F000112EC0EF03A
:1034400001C06AF0020E0A01666F840E656F00010A
:1034500012EC0EF001C06BF06AC069F00A01666BF5
:103460000B0E656F000112EC0EF001C0B1F40A0101
:10347000666B0C0E656F000112EC0EF001C0B2F429
:103480000A01666B0D0E656F000112EC0EF001C0B3
:10349000B3F402EC00F00A01666B490E656F00019F
:1034A00012EC0EF001C0DAF4DEEFDEF02D6A12004D
:1034B0000A0154531DE15151555D19E253CA66FA90
:1034C00052CA65FA000112EC0EF001C051FA0A016D
:1034D0005151555D0CE253CA68FA52CA67FA56CA8E
:1034E00069FA000123EC0EF056CA51FA0A0141D0E4
:1034F000553D1DD05451515D19E253CA66FA52CA66
:1035000065FA000112EC0EF001C051FA0A015451A3
:10351000515D0CE253CA68FA52CA67FA56CA69FA90
:10352000000123EC0EF056CA51FA0A0122D0545180
:10353000515D03E35151555D1CE253CA66FA52CA0C
:1035400065FA000112EC0EF001C051FA0A01545163
:10355000515D03E35151555D0CE253CA68FA52CAFA
:1035600067FA56CA69FA000123EC0EF056CA51FAFE
:103570000A0151CA01F0000112000A015351575DBE
:1035800004E30AE15651525D07E35951535D2EE3BE
:1035900003E15251585D2AE255CA5DFA54CA5CFAF9
:1035A000000185EC0BF002C053FA01C052FA0A0187
:1035B0005351575D04E30AE15651525D07E35951F7
:1035C000535D14E303E15251585D10E255CA5DFAB0
:1035D00054CA5CFA5BCA5FFA5ACA5EFA0001D7ECB9
:1035E00011F05BCA53FA5ACA52FA0A0152CA01F0E0
:1035F00053CA02F000011200020E0A015D6F810E33
:103600005C6F000185EC0BF002C066F001C065F054
:103610000A014E6B4D6B4C6B00016D510A014C5D04
:103620000DE2036A4C51070FE96E010E0320EA6EAA
:10363000EF504D27000E4E234C2BEED74ECA6FF0A5
:103640004DCA6EF04E510001665D0DE308E1655113
:103650000A014D5DD8A002D0000105D00001060E80
:10366000666F400E656F0A014C6B00016D510A01D7
:103670004C5D1CE2036A4C51070FE96E010E0320FA
:10368000EA6EEF50000166530EE1655D0CE2036ADD
:103690000A014C51070FE96E010E0320EA6E00018A
:1036A000666BEFCF65F00A014C2BDFD76FC071F06E
:1036B0006EC070F04C6B00016D510A014C5D1DE253
:1036C000036A4C51070FE96E010E0320EA6EEF50BA
:1036D0000001715303E1705D0DE00CE3036A0A0120
:1036E0004C51070FE96E010E0320EA6E0001716B69
:1036F000EFCF70F00A014C2BDED7000112004E6AAA
:10370000D5DECBC451FA0A01536B0A0E526F5A0E22
:10371000546F630E556F5F0E566F0001C9DE01C016
:10372000CBF422840301B16BB151010816E3D890A8
:10373000B135036A000177EC00F00900F5CF03F022
:103740000401BD5D07E10350BE5D04E12294030165
:1037500004D004010301B12BE7D722A438D00A0119
:103760005D6B110E5C6F000185EC0BF002C0BEF4C6
:1037700001C0BDF40301B16BB151010816E3D8904B
:10378000B135036A000177EC00F00900F5CF03F0D2
:103790000401BD5D07E10350BE5D04E12294030115
:1037A00004D004010301B12BE7D722A410D00401F7
:1037B000BE6BDC0EBD6F0A015D6B110E5C6FBEC48B
:1037C0005FFABDC45EFA0001D7EC11F00301228458
:1037D000B16BB151250818E3D890B135036A0001E7
:1037E00094EC00F00900F5CF03F00401BF5D09E19E
:1037F0000350C05D06E1B1C319F52294030104D062
:1038000004010301B12BE5D722A43DD00A015D6B71
:10381000130E5C6F000185EC0BF002C0C0F401C018
:10382000BFF40301B16BB151250818E3D890B1354D
:10383000036A000194EC00F00900F5CF03F00401E5
:10384000BF5D09E10350C05D06E1B1C319F52294E3
:10385000030104D004010301B12BE5D722A413D046
:10386000010E0401C06FF40EBF6F130E0501196F36
:103870000A015D6B5C6FC0C45FFABFC45EFA0001F1
:10388000D7EC11F0030100015CEC15F0C2C453FA4F
:10389000C1C452FA0A01556B2B0E546F576B010EBF
:1038A000566F596FF40E586F5B6B010E5A6F000123
:1038B00064DE02C0C2F401C0C1F40401B1BF03D090
:1038C000B151780804E3B151800A07081FE30A01E7
:1038D000666B0B0E656F000112EC0EF001C0B1F4C7
:1038E0000401B1BF03D0B151780804E3B151800A9B
:1038F00007080CE30A0EB16F0A01686B0B0E676FC5
:10390000B1C469FA000123EC0EF00401B2BF03D088
:10391000B251780804E3B251800A07081FE30A0194
:10392000666B0C0E656F000112EC0EF001C0B2F474
:103930000401B2BF03D0B251780804E3B251800A47
:1039400007080CE30A0EB26F0A01686B0C0E676F72
:10395000B2C469FA000123EC0EF00401B3BF03D036
:10396000B351780804E3B351800A07081FE30A0142
:10397000666B0D0E656F000112EC0EF001C0B3F422
:103980000401B3BF03D0B351780804E3B351800AF4
:1039900007080CE30A0EB36F0A01686B0D0E676F20
:1039A000B3C469FA000123EC0EF00401ABBF03D0ED
:1039B000AB51780804E3AB51800A07081FE30A0102
:1039C000666B0E0E656F000112EC0EF001C0ABF4D9
:1039D0000401ABBF03D0AB51780804E3AB51800ABC
:1039E00007080CE30A0EAB6F0A01686B0E0E676FD7
:1039F000ABC469FA000123EC0EF00401AE5302E0FF
:103A0000AE3D1AD00A01666B150E656F000112EC0F
:103A10000EF001C0AEF40401AE5302E0AE3D0CD096
:103A20005B0EAE6F0A01686B150E676FAEC469FA64
:103A3000000123EC0EF00401ACBF03D0AC517808B8
:103A400004E3AC51800A07081FE30A01666B0F0EFE
:103A5000656F000112EC0EF001C0ACF40401ACBFC4
:103A600003D0AC51780804E3AC51800A07080CE39A
:103A70000A0EAC6F0A01686B0F0E676FACC469FA6F
:103A8000000123EC0EF00401ADBF03D0AD51780866
:103A900004E3AD51800A07081FE30A01666B100EAC
:103AA000656F000112EC0EF001C0ADF40401ADBF72
:103AB00003D0AD51780804E3AD51800A07080CE348
:103AC0000A0EAD6F0A01686B100E676FADC469FA1C
:103AD000000123EC0EF00401AF5302E0AF3D1AD019
:103AE0000A01666B160E656F000112EC0EF001C044
:103AF000AFF40401AF5302E0AF3D0CD06C0EAF6FDA
:103B00000A01686B160E676FAFC469FA000123ECF7
:103B10000EF00401B05302E0B03D1AD00A01666B0A
:103B2000170E656F000112EC0EF001C0B0F4040135
:103B3000B05302E0B03D0CD0650EB06F0A01686B67
:103B4000170E676FB0C469FA000123EC0EF0040190
:103B5000B751080803E2B751370803E2B7513F08ED
:103B60001EE20A01666B060E656F000112EC0EF094
:103B700001C0B7F40401B751080803E2B751370890
:103B800003E2B7513F080BE2B76B0A01686B060E00
:103B9000676FB7C469FA000123EC0EF00401B85155
:103BA000400819E20A01666B070E656F000112EC0E
:103BB0000EF001C0B8F40401B85140080CE2100E38
:103BC000B86F0A01686B070E676FB8C469FA000125
:103BD00023EC0EF00401BB51060819E20A01666BE2
:103BE000180E656F000112EC0EF001C0BBF4040169
:103BF000BB5106080CE2030EBB6F0A01686B180E7E
:103C0000676F030E696F000123EC0EF00401B4BF6F
:103C100003D0B451780804E3B451800A07081EE3C6
:103C20000A01666B460E656F000112EC0EF001C0D2
:103C3000B4F40401B4BF03D0B451780804E3B45120
:103C4000800A07080BE3B46B0A01686B460E676FC6
:103C5000B4C469FA000123EC0EF00401B5BF03D02F
:103C6000B551780804E3B551800A07081EE30A013C
:103C7000666B470E656F000112EC0EF001C0B5F4E3
:103C80000401B5BF03D0B551780804E3B551800AEB
:103C900007080BE3B56B0A01686B470E676FB5C485
:103CA00069FA000123EC0EF00401B6BF03D0B6514F
:103CB000780804E3B651800A07081EE30A01666B20
:103CC000480E656F000112EC0EF001C0B6F404015D
:103CD000B6BF03D0B651780804E3B651800A07088E
:103CE0000BE3B66B0A01686B480E676FB6C469FADE
:103CF000000123EC0EF00401CD51030817E20A0184
:103D0000666B2A0E656F000112EC0EF001C0CDF457
:103D10000401CD5103080AE2CD6B0A01686B2A0E3B
:103D2000676F696B000123EC0EF004012284010E21
:103D3000C66F2C0EC56F22840301B16BB15105080B
:103D400019E3D890B135036A000184EC00F0090052
:103D5000F5CF03F00401C35D0AE10350C45D07E140
:103D60000001B3EC0BF02294030104D00401030121
:103D7000B12BE4D722A438D00A015D6B2D0E5C6F05
:103D8000000185EC0BF002C0C4F401C0C3F40301D0
:103D9000B16BB151050816E3D890B135036A000143
:103DA00084EC00F00900F5CF03F00401C35D07E1E6
:103DB0000350C45D04E12294030104D00401030113
:103DC000B12BE7D722A410D04B0E0401C46FC36BF4
:103DD0000A01686B2D0E676FC3C469FA000123ECFA
:103DE0000EF0B3EC0BF003010A01666B260E656F53
:103DF000000112EC0EF001C0CEF40401CE5303E03A
:103E0000CE51F8080CE2010ECE6F0A01686B260E47
:103E1000676FCEC469FA000123EC0EF00401CF51A4
:103E20000F080CE00F0ECF6F0A01686B290E676F49
:103E30000F0E696F000123EC0EF004010301B16B5A
:103E4000B1510F0831E3036AB151070F016E010E42
:103E5000032201C04CFA03C04DFA036A0301B151B9
:103E6000070FE96E010E0320EA6EEFCF51FAF30E51
:103E7000B1250A014F6F020E506FD8B0502B50CAB7
:103E800053FA4FCA52FA546BFA0E556F640E566FBE
:103E9000000158EC1AF04DCAEAFF4CCAE9FF01C014
:103EA000EFFF0301B12BCCD700013CEC0EF0FCEC92
:103EB0001AF06AC051FA020E0A01536F830E526F54
:103EC000050E546FF00E556F1E0E566F000158EC24
:103ED0001AF001C06AF06BC051FA020E0A01536F6A
:103EE000840E526F050E546FF00E556F1E0E566FF6
:103EF000000158EC1AF001C06BF00301636B626BB8
:103F0000B16BB1510C08D8A07ED0D890B135036AFE
:103F1000DB0F016E040E032201C04CFA03C04DFA00
:103F2000D8900301B135036ADB0FE96E040E03205C
:103F3000EA6EECCF53FAED52EFCF52FA160E62252D
:103F40000A01506F030E030163210A01516F556F7F
:103F500050CA54FA576B566BFD0E596FE80E586FE6
:103F6000060E5B6F400E5A6F0001BDEC1AF04DCA91
:103F7000EAFF4CCAE9FF02C0ECFFED5201C0EFFFBF
:103F8000D8900301B135036AF50F016E040E0322C8
:103F900001C04CFA03C04DFAD8900301B135036A51
:103FA000F50FE96E040E0320EA6EECCF53FAED52E2
:103FB000EFCF52FA2E0E62250A01506F030E030155
:103FC00063210A01516F556F50CA54FA576B566BF3
:103FD000FD0E596FE80E586F060E5B6F400E5A6F5C
:103FE0000001BDEC1AF04DCAEAFF4CCAE9FF02C05D
:103FF000ECFFED5201C0EFFF020E03016227000E3D
:104000006323B12B7ED710C553FA0FC552FA030EA6
:104010000A01556FDC0E546F576B566BFD0E596FCE
:10402000E80E586F0F0E5B6FA00E5A6F0001BDECCB
:104030001AF002C010F501C00FF511C551FA030EB8
:104040000A01536FDE0E526F010E546F1F0E556F33
:10405000010E566F000158EC1AF001C011F512C59F
:1040600051FA030E0A01536FDF0E526F010E546FA7
:104070000C0E556F050E566F000158EC1AF001C07A
:1040800012F513C551FA030E0A01536FE00E526F79
:10409000010E546F1F0E556F1E0E566F000158EC27
:1040A0001AF001C013F514C551FA030E0A01536F3B
:1040B000E10E526FDF0E546F0C0E556F0B0E566FE4
:1040C000000158EC1AF001C014F505011251145DFD
:1040D00003E01251145D3AE2030E0A01666FE10E2D
:1040E000656F000112EC0EF001C014F5030E0A0119
:1040F000666FDF0E656F000112EC0EF001C012F565
:1041000005011251145D03E01251145D1FE21251BA
:104110000C0803E00B0E146F04D00B0E146F050E89
:10412000126F030E0A01686FDF0E676F12C569FA1E
:10413000000123EC0EF0030E0A01686FE10E676FB9
:1041400014C569FA000123EC0EF0050184C051FA90
:104150000A01536B4F0E526F546B010E556F566B25
:10416000000158EC1AF001C084F00301B16BB151A9
:104170000F08D8A0FCD0036AB151590FE96E010EA7
:104180000320EA6EEF5044084EE0036AB151590F24
:10419000E96E010E0320EA6EEF50480844E0036A1E
:1041A000B151590F016E010E032201C04CFA03C038
:1041B0004DFA500E0301B1250A014E6F666B656F13
:1041C000000112EC0EF04DCAEAFF4CCAE9FF01C033
:1041D000EFFF036A0301B151590FE96E010E03208D
:1041E000EA6EEF5044081FE0036AB151590FE96EBF
:1041F000010E0320EA6EEF50480815E0036AB15142
:10420000590FE96E010E0320EA6E440EEF6E500E58
:10421000B1250A014C6F686B676F440E696F00012E
:1042200023EC0EF00301036AB1516A0F016E010E17
:10423000032201C04CFA03C04DFA036A0301B151D5
:104240006A0FE96E010E0320EA6EEFCF51FA600E9D
:10425000B1250A014F6F536B526F546B170E556F98
:10426000120E566F000158EC1AF04DCAEAFF4CCA04
:10427000E9FF01C0EFFF036A0301B1517B0F016E3B
:10428000010E032201C04CFA03C04DFA036A030178
:10429000B1517B0FE96E010E0320EA6EEFCF51FAA8
:1042A000700EB1250A014F6F536B526F546B3B0E6A
:1042B000556F566B000158EC1AF04DCAEAFF4CCA14
:1042C000E9FF01C0EFFF036A0301B1518C0F016EDA
:1042D000010E032201C04CFA03C04DFA036A030128
:1042E000B1518C0FE96E010E0320EA6EEFCF51FA47
:1042F000800EB1250A014F6F536B526F546B170E2E
:10430000556F150E566F000158EC1AF04DCAEAFFB2
:104310004CCAE9FF01C0EFFF036A0301B1519D0FD1
:10432000016E010E032201C04CFA03C04DFA036A6C
:104330000301B1519D0FE96E010E0320EA6EEFCF2C
:1043400051FA900EB1250A014F6F536B526F546BA7
:104350003B0E556F566B000158EC1AF04DCAEAFF40
:104360004CCAE9FF01C0EFFF0301B12B00D70001E8
:104370006C531CE06C2D01D019D00A01666B4C0EF9
:10438000656F000112EC0EF001C06CF06C530EE092
:104390006C2D01D00BD0010E6C6F0A01686B4C0EB6
:1043A000676F010E696F000123EC0EF00301B16B22
:1043B00000016D510301B15D6AE2036AB151E70F7B
:1043C000E96E000E0320EA6EEF50F0080CE3036A7A
:1043D000B151E70FE96E000E0320EA6E00016A5149
:1043E000EF5C52E20301036AB151E70F016E000E68
:1043F000032201C04CFA03C04DFADA0E0301B125C5
:104400000A014E6F020E4F6FD8B04F2B4FCA66FA9B
:104410004ECA65FA000112EC0EF04DCAEAFF4CCA12
:10442000E9FF01C0EFFF036A0301B151E70FE96E35
:10443000000E0320EA6EEF50F0080CE3036AB1515E
:10444000E70FE96E000E0320EA6E00016A51EF5C8F
:104450001BE20301036AB151E70FE96E000E03206E
:10446000EA6E3C0EEF6EDA0EB1250A014C6F020EB9
:104470004D6FD8B04D2B4DCA68FA4CCA67FA3C0E46
:10448000696F000123EC0EF00301B12B91D7D0C46A
:1044900051FA0A01536B1C0E526F500E546F640E8A
:1044A000556F566F000158EC1AF001C0D0F4D1C41A
:1044B00051FA0A01536B1D0E526F500E546F640E69
:1044C000556F566F000158EC1AF001C0D1F4D2C4F8
:1044D00051FA0A01536B1E0E526F546B140E556F36
:1044E000566B000158EC1AF001C0D2F4D3C451FA53
:1044F0000A01536B1F0E526F546B1E0E556F566B95
:10450000000158EC1AF001C0D3F40401C7510308AC
:1045100017E20A01666B3E0E656F000112EC0EF0A9
:1045200001C0C7F40401C75103080AE2C76B0A01BE
:10453000686B3E0E676F696B000123EC0EF004019F
:10454000DAC451FA0A01536B490E526F546B140EC0
:10455000556F0A0E566F000158EC1AF001C0DAF4DC
:10456000010E0401A76FA7C451FA0A01536B400E54
:10457000526F546B030E556F010E566F000158ECCD
:104580001AF001C0A7F4229405011751155D17E335
:104590000A01666B3A0E656F000112EC0EF001C065
:1045A00015F50A01666B3C0E656F000112EC0EF00A
:1045B00001C017F505011751155D01E3228415515E
:1045C00017080EE20A01666B3A0E656F000112ECE5
:1045D0000EF001C015F505011551170801E22284FE
:1045E000175117080EE20A01666B3C0E656F000159
:1045F00012EC0EF001C017F505011751170801E282
:10460000228416513B080EE20A01666B3B0E656F71
:10461000000112EC0EF001C016F5050116513B0821
:1046200001E2228418513B080EE20A01666B3D0E3E
:10463000656F000112EC0EF001C018F5050118516C
:104640003B0801E2228422A42BD0120E156F150E16
:10465000176F166B186B0A01686B3A0E676F120EB4
:10466000696F000123EC0EF00A01686B3C0E676F66
:10467000150E696F000123EC0EF00A01686B3B0E0A
:10468000676F1E0E696F000123EC0EF00A01686B64
:104690003D0E676F1E0E696F000123EC0EF00501E1
:1046A000000121EC0DF002EC00F0120096948D84D4
:1046B00096948D8496948D8496948D841200969011
:1046C0008D801200010E0A01635DFC0F19E2040FD8
:1046D00000018AEF23F0800E0A01646F11D00001FF
:1046E000C00E0A01646F0CD00001900E0A01646FC5
:1046F00007D00001D00E0A01646F02D000010A0148
:10470000010E625D6427656B64CA66FA000132ECD3
:104710000CF01200E824F76AF736350FF66E470EF4
:10472000F722000EF86EFB6E0A00F550FA6E0800D4
:10473000F550F96ED646E046EA46F4460A0166515F
:104740006803F3CF01F0F4CF00F06903F3500026C3
:1047500067516803F3500020026E000112000A0145
:10476000656B140E666F000132EC0CF037EF24F02D
:104770000A014F510C0A000107E0060A11E0020A83
:104780001BE0080A23E025D00A01656B010E666F65
:10479000000132EC0CF0010E08018F6F23D00001F4
:1047A00008018F2B010E0A01626F8FC863FA0001A6
:1047B00089DF080117D000010A01656B100E666FD2
:1047C000000132EC0CF008010DD0000108010AD004
:1047D0000001010E0A01656F4FCA66FA000132EC52
:1047E0000CF00801000112004DCA90F84ECA91F871
:1047F0000A014D51040802E2010E4D6F4DCA8FF8B7
:10480000010E626F8FC863FA00015CDF0301BD69AE
:10481000B06BBD535DE00A014E51C7081EE3676BE4
:104820004ECA66FA696B110E686F000187DF02C01D
:1048300050FA01C04FFA0301B051B02B0124016EB0
:10484000000E0220036E015003C0F7FF00010EECC2
:1048500002F0E8CFBDF305D00A014E51C80800E1CF
:1048600000010301BD51400804E1000178D72AD0BE
:104870000301BD51E90809E1010E0A01656F666B8C
:10488000000132EC0CF01ED00301BD51E20809E139
:10489000010E0A01656F666F000132EC0CF012D058
:1048A0000301BD51E4080AE1010E0A01656F020E21
:1048B000666F000132EC0CF005D00301BDC34FFA66
:1048C000000156DF0301B051100801E201D0A1D769
:1048D00000011200020E0A014D6F4E6F000184DFCD
:1048E000020E0A01626F636F0001ECDE010E0A0125
:1048F000656FDF0E666F000132EC0CF0040E0A01EA
:10490000626F020E636F0001DDDE010E0A01656F4A
:104910004FC066FA000132EC0CF0010E0A01656F1F
:1049200050C066FA000132EC0CF0010E0A01656F0E
:1049300051C066FA000132EC0CF0010E0A01656FFD
:1049400052C066FA000132EC0CF0010E0A01656FEC
:104950002E0E666F000132EC0CF0010E0A01656F3D
:10496000420E666F000132EC0CF00D0E0A01626F10
:10497000020E636F0001A6DE010E0A01656F320EA2
:10498000666F000132EC0CF0010E0A01656F2E0E0D
:10499000666F000132EC0CF0010E0A01656F580ED3
:1049A000666F000132EC0CF0010E0A01656F580EC3
:1049B000666F000132EC0CF01200030E0A01666F04
:1049C0007C0E656F000112EC0EF001C04FF0030E7B
:1049D0000A01666F7D0E656F000112EC0EF001C0DA
:1049E00050F0030E0A01666F7E0E656F000112EC37
:1049F0000EF001C051F0030E0A01666F7F0E656F65
:104A0000000112EC0EF001C052F04F502F0803E2EB
:104A10004F5039080CE2300E4F6E030E0A01686FDA
:104A20007C0E676F300E696F000123EC0EF0505062
:104A30002F0803E2505039080CE2300E506E030E7E
:104A40000A01686F7D0E676F300E696F000123ECFD
:104A50000EF051502F0803E2515039080CE2300E8D
:104A6000516E030E0A01686F7E0E676F300E696F1C
:104A7000000123EC0EF052502F0803E25250390887
:104A80000CE2300E526E030E0A01686F7F0E676FE4
:104A9000300E696F000123EC0EF05AEC0CF056EC6E
:104AA0001AF0010E0A014D6F4E6F00019DDE12DFFC
:104AB00069D0080E0301B16FB1511308D8A061D0BD
:104AC000036AB1510001E1EC00F0E8CFBEF303014D
:104AD000BE5140084FE14F502F0831E24F50390886
:104AE0002EE350502F082BE25050390828E3515044
:104AF0002F0825E25150390822E352502F081FE2B7
:104B0000525039081CE32D0E0A014F6F000130DEB0
:104B1000218A0301B26BB251030811E3036AB25157
:104B20004F0FE96E000E0320EA6EEFCFBEF3BEC357
:104B30004FFA00011DDE0301B12BB22BECD721BAD5
:104B400018D02D0E0A014F6F000112DE0301B26B67
:104B5000B25103080EE3036AB1510001E1EC00F029
:104B6000E8CFBEF3BEC34FFA03DE0301B12BB22B75
:104B7000EFD705D0BEC34FFA0001FADD0301B12B18
:104B80009BD70001120094928B9294908B900A0113
:104B9000846B845107080EE3D890833302E28B9232
:104BA00001D08B82949294908B8000D094908B90C3
:104BB000842BEFD70001120098988F8881CA83FA5E
:104BC000E2DF82CA83FADFDF98988F9812000A0129
:104BD0007E6B98988F887DCA83FA0001D4DF948217
:104BE0000A017F6B7F5107080EE3948282B202D0E4
:104BF000D89001D0D8807E3394908B8000D0949050
:104C00008B907F2BEFD798988F987ECA01F0000188
:104C1000120098988F9894908B908E0E0A01816F55
:104C2000826B0001C9DF010E0A01676F00011AECF7
:104C30000CF0900E0A01816FA60E826F0001BCDF9E
:104C4000010E0A01676F00011AEC0CF0810E0A01D7
:104C50007D6F0001BCDF01C0BEF30301BE51800BBC
:104C600007E0800E0A01816F826B0001A5DF03015E
:104C7000000112004CCA4DFAF00E0A014C174C3BD1
:104C80004C510A0DF3CF4CFA0F0E4D174D514C27D6
:104C90004CCA01F000011200870E0A017D6F00016D
:104CA00096DF01C04AFA01C04CFAE4DF01C0BFF34D
:104CB000890E0A017D6F00018ADF01C04AFA01C036
:104CC0004CFAD8DF01C0C0F38D0E0A017D6F0001E0
:104CD0007EDF01C04AFA01C04CFACCDF01C0C1F34B
:104CE0001200810E0A017D6F000171DF01C04AFAD6
:104CF00001C04CFABFDF01C0C4F3830E0A017D6F0F
:104D0000000165DF01C04AFA01C04CFAB3DF01C0FF
:104D1000C3F3850E0A017D6F000159DF01C04AFA15
:104D200001C04CFAA7DF01C0C2F3120096948D9423
:104D3000120092CA97FA91CA96FA90CA95FA8FCA47
:104D400094FAF4DFC950500EC96EC730FEE3AEDCF2
:104D5000C9EF26F092CA97FA91CA96FA90CA95FAC4
:104D60008FCA94FAE3DFC950010EC96EC730FEE363
:104D7000C95093CAC9FFC730FEE398DCD6EF26F0CE
:104D80008ECA92FA8DCA91FA8CCA90FA8BCA8FFA9F
:104D9000D0D78ECA92FA8DCA91FA8CCA90FA8BCA71
:104DA0008FFA020E0A01936F0001D4D7120050CA85
:104DB00097FA4FCA96FA4ECA95FA4DCA94FAB6DFD8
:104DC000C950900EC96EC730FEE3C950C96AC730DA
:104DD000FEE3C950C96AC730FEE3C95051CAC9FFD2
:104DE000C730FEE3C950C96AC730FEE3C9CF8CF8AB
:104DF0005DDC08018CC801F0000112000A01625359
:104E000006E1010E016E000E026E5ED05DD0622DD5
:104E100006D0020E016E000E026E56D055D06251C1
:104E2000020806E1040E016E000E026E4DD04CD059
:104E30006251030806E1080E016E000E026E44D0B6
:104E400043D06251040806E1100E016E000E026E9E
:104E50003BD03AD06251050806E1200E016E000EEB
:104E6000026E32D031D06251060806E1400E016E6A
:104E7000000E026E29D028D06251070806E1800E8C
:104E8000016E000E026E20D01FD06251080806E1AC
:104E9000000E016E010E026E17D016D06251090885
:104EA00006E1000E016E020E026E0ED00DD06251B0
:104EB0000A0806E1000E016E040E026E05D004D051
:104EC000010E016E000E026E00011200016A026AFC
:104ED000006A036A0A016E5102E16D5118E0100E7A
:104EE0006F6FD8906B376C37003603366E51035CAA
:104EF00002E16D51005C07E36D51005ED8A003062E
:104F00006E51035ED880013602366F2FEAD700015A
:104F1000120063CA6CFA62CA6BFA270E0A016E6F3E
:104F2000100E6D6F0001D2DF02C065FA01C064FA95
:104F3000300E0A0164250801646F65CA67FA64CA05
:104F400066FA270E0A01696F100E686F00019EEC69
:104F500023F001500A01625F0250635B63CA6CFA7E
:104F600062CA6BFA030E6E6FE80E6D6F0001AEDF62
:104F700002C065FA01C064FA300E0A016425080116
:104F8000656F65CA67FA64CA66FA030E0A01696F3B
:104F9000E80E686F00019EEC23F001500A01625F89
:104FA0000250635B63CA6CFA62CA6BFA6E6B640E82
:104FB0006D6F00018BDF02C065FA01C064FA300E2C
:104FC0000A0164250801666F65CA67FA64CA66FA51
:104FD0000A01696B640E686F00019EEC23F00150BA
:104FE0000A01625F0250635B63CA6CFA62CA6BFAC1
:104FF0006E6B0A0E6D6F000169DF02C065FA01C0B9
:1050000064FA300E0A0164250801676F65CA67FA01
:1050100064CA66FA0A01696B0A0E686F00019EECA9
:1050200023F001500A01625F0250635B300E62257B
:105030000801686F0001120052CA57FA0A014E5166
:105040000F0809E34ECA62FA010E636F000162ECB9
:1050500023F026D00A014E511F080BE3100E4E5FBD
:105060004ECA62FA020E636F000162EC23F018D0A0
:105070000A014E512F080BE3200E4E5F4ECA62FA12
:10508000030E636F000162EC23F00AD00A01300EB8
:105090004E5F4ECA62FA040E636F000162EC23F0A9
:1050A0000A015351500809E129AA02D02A8001D0EF
:1050B0002A90556B010E546F0AD02A9053CA62FA97
:1050C00000019CDE02C055FA01C054FA0A0150CA20
:1050D0006CFA4FCA6BFA55CA6EFA54CA6DFA0001DF
:1050E000F5DE02C059FA01C058FA59CA63FA58CA23
:1050F00062FA0FDF050ED8800A015155566F5651DE
:1051000004082EE32AA01BD029AE09D0010E656F3A
:10511000200E666F000132EC0CF00FD00A01036A1A
:105120005651640FE96E080E0320EA6EEFCF66FA5F
:10513000010E656F000132EC0CF00FD00A01036A1A
:105140005651640FE96E080E0320EA6EEFCF66FA3F
:10515000010E656F000132EC0CF00A01562BCFD71F
:1051600057536AE0010E656F2C0E666F000132EC3A
:105170000CF050CA6CFA4FCA6BFA55CA6EFA54CA90
:105180006DFAA4DE00C058FA0A0103C059FA59CAE0
:1051900067FA58CA66FA696B640E686F00019EEC84
:1051A00023F002C05BFA01C05AFA02C06CFA01C0D7
:1051B0006BFA55CA6EFA54CA6DFA88DE02C059FA03
:1051C00001C058FA59CA63FA58CA62FAA2DE030E3D
:1051D0000A01566F030E5725565D2EE22AA01BD0FA
:1051E00029AE09D0010E656F200E666F000132EC0A
:1051F0000CF00FD00A01036A5651640FE96E080ED5
:105200000320EA6EEFCF66FA010E656F000132EC03
:105210000CF00FD00A01036A5651640FE96E080EB4
:105220000320EA6EEFCF66FA010E656F000132ECE3
:105230000CF00A01562BCED700011200010E0A0114
:105240004D6F810E4E6F0001F4EC23F0110E0A0138
:105250004E6F506B4CCA4FFA010E516F526B536B2D
:105260000001EADE0A01506B4F6B4E6B4D6B010E75
:10527000516F00019CDD01C04CFA0A014C518E08AF
:1052800002E10FD00DD0040E4D6FFA0E676F0001D2
:105290001AEC0CF00A014D2FF8D70001CFD70A0104
:1052A000E2D7000181EF29F00A018E6B8D6B8C6BC8
:1052B0008B6B000165DD0A01506B4F6B4E6B4D6BC4
:1052C000010E516F000173DD01508E0808E10A01E3
:1052D0008E6B8D6B8C6B8B6B000152DD12D00A01D3
:1052E000506B4F6B4E6B4D6B010E516F00015FDDCC
:1052F00001C04AFA010E0A014B6F01C04CFA0001CD
:105300009DD726EFDFF00A017D51D8B471D0006E31
:105310008151D8B46DD0002604E3810E002668E2E6
:1053200004D07F0E005E64E363E07ECA85FA82519A
:10533000851B7E8F828F80518403F4CF87FA7F5143
:105340008303F4CF03F0F3CF86FA8403F350872767
:10535000F4508623000E032280518303F3508727E5
:10536000F4508623000E026A032202227E51840337
:10537000F3508627F4500322000E02227E5183034D
:10538000F3500326F4500222000E016A01228051DC
:105390008203F3508627F4500322000E02220122DA
:1053A0007F518203F3500326F4500222000E0122A3
:1053B0007E518203F3500226F4500122002A01BEDE
:1053C00005D086370336023601360006000E86AF5A
:1053D0000AD0032A02220122015005E1025003E112
:1053E000035001E1002A85BF018E85AF019E04D0E4
:1053F000006A016A026A036A000112008E0E006EE2
:105400000A017951005E7ACA02F07BCA01F0028E6D
:10541000005209E0D890025202E1015204E0023247
:105420000132002EF7D77AAF05D0011E021E012AE5
:10543000D8B4022A00011200B60E006E036A026A96
:10544000016A0A0179517A117B117C1102E1006A2B
:105450000DD0D89001BE09D079377A377B377C37A9
:10546000033602360136002EF4D7019E00011200E9
:105470000A017951B608796F036A7ACA7DFA7A8F80
:10548000D8907A337B337C330332023201320032DC
:10549000792FF6D77DAF0BD0001E011E021E031E12
:1054A000002AD8B4012AD8B4022AD8B4032A0001A9
:1054B0001200D8900A017B377B51C1097C6F7D6F48
:1054C0000001E7EC25F0015012000A017951792B17
:1054D0007A6F7B6F0001EDDF0301F06B01C0EFF32A
:1054E00079CA7BFA0001E5DF01C0BEF3EFC3F0F338
:1054F0000A017A6B7A510301BE11EF6F0301EFC30A
:1055000001F0F0C302F0000112007CCA97FA7BCAD6
:1055100096FA7ACA95FA79CA94FA08DCC950030E49
:10552000C96EC730FEE37BCA7DFAC9507BCAC9FF8A
:10553000C730FEE37ACA7DFAC9507ACAC9FFC730BC
:10554000FEE379CA7DFAC95079CAC9FFC730FEE3C4
:10555000C950C96AC730FEE3C9CF8BF856EC23F0B7
:1055600008018BC801F0000112008ACA97FA89CAA3
:1055700096FA88CA95FA87CA94FA96EC26F0C9502A
:10558000050EC96EC730FEE3C950C96AC730FEE3D5
:10559000C9CF8DF856EC23F008018D510C0B23E098
:1055A0008ACA8EFA89CA8DFA88CA8CFA87CA8BFA97
:1055B0000001C0EC26F08ACA97FA89CA96FA88CA0E
:1055C00095FA87CA94FA96EC26F0C950050EC96E72
:1055D000C730FEE3C950C96AC730FEE3C9CF8DF8B2
:1055E00056EC23F008018D510C0B0C0801E1FFD79C
:1055F0008DC801F00001120086CA8AFA85CA89FAAC
:1056000084CA88FA83CA87FAB0DF01C08DF886CAD7
:105610008AFA85CA89FA84CA88FA83CA87FAA5DF12
:1056200001C08DF808018D51020B020814E086CAF2
:1056300097FA85CA96FA84CA95FA83CA94FA000141
:1056400096EC26F0C950060EC96EC730FEE356EC44
:1056500023F003D0080103D00001D9D708010001CD
:105660004CEF2BF082CA97FA81CA96FA80CA95FA53
:105670007FCA94FA96EC26F0C950060EC96EC73060
:10568000FEE356EC23F082CA86FA81CA85FA80CA04
:1056900084FA7FCA83FAB0D7120082CA8AFA81CA12
:1056A00089FA80CA88FA7FCA87FA5FDF0150010B46
:1056B000010810E10400200E006E002EFED700D07D
:1056C00082CA8AFA81CA89FA80CA88FA7FCA87FAA6
:1056D0004CDFE3D712007CCA82FA7BCA81FA7ACA0D
:1056E00080FA79CA7FFABEDF7CCA97FA7BCA96FA3B
:1056F0007ACA95FA79CA94FA96EC26F0C950200E27
:10570000C96EC730FEE37BCA7DFAC9507BCAC9FFA8
:10571000C730FEE37ACA7DFAC9507ACAC9FFC730DA
:10572000FEE379CA7DFAC95079CAC9FFC730FEE3E2
:1057300056EC23F07CCA82FA7BCA81FA7ACA80FAD4
:1057400079CA7FFAAADF12007DCA82FA7CCA81FA7E
:105750007BCA80FA7ACA7FFA85DF7DCA97FA7CCA4B
:1057600096FA7BCA95FA7ACA94FA96EC26F0C95052
:10577000020EC96EC730FEE37CCA7FFAC9507CCAEC
:10578000C9FFC730FEE37BCA7FFAC9507BCAC9FF95
:10579000C730FEE37ACA7FFAC9507ACAC9FFC73058
:1057A000FEE3C9507ECAC9FFC730FEE356EC23F0C2
:1057B0007DCA82FA7CCA81FA7BCA80FA7ACA7FFAE9
:1057C0006CDF12007CCA97FA7BCA96FA7ACA95FAFD
:1057D00079CA94FA96EC26F0C950040EC96EC73007
:1057E000FEE356EC23F01200D8900A017E377E517A
:1057F000C009806F816F7FCA82FA0001DCEC25F05E
:1058000012007BCA7CFA0A017951792B7D6F7E6F79
:105810007CCA7FFA0001E8DF7ACA7CFA79CA7EFA8C
:105820007CCA7FFAE1DF1200010E0A017A6F040ED2
:10583000796F2FC47EFA2EC47DFA2DC47CFA2CC455
:105840007BFA000185EC0DF0010E0A017A6F080E5B
:10585000796F2BC47EFA2AC47DFA29C47CFA28C445
:105860007BFA000185EC0DF0080E0301B16FB15118
:105870001F080AE3036AB151590FE96E0A0E0320AB
:10588000EA6EEF6AB12BF3D758CA4CF058CA59FAEE
:105890000A01585120080FE13DC05AFA3EC05BFA98
:1058A0003FC05CFA40C05DFA41C05EFA42C05FFA98
:1058B000F00E606F0ED0BFC35AFAC0C35BFAC1C30B
:1058C0005CFAC2C35DFAC3C35EFAC4C35FFA4EC2D8
:1058D00060FA5851190830E1010E7A6F040E796FA1
:1058E000000127EC0DF003C02FF402C02EF401C01C
:1058F0002DF400C02CF4010E0A017A6F080E796FA6
:10590000000127EC0DF003C02BF402C02AF401C003
:1059100029F400C028F402018F6B8E6B916B906BA1
:10592000040E936F926B776B766B796B786B7F6BF2
:105930007E6B816B806B0A018FC261FA8EC262FA44
:1059400091C27EFA90C27DFA000192EC14F003C07D
:1059500097F302C096F301C095F300C094F397C388
:1059600080FA96C37FFA95C37EFA94C37DFA51C339
:1059700084FA50C383FA4FC382FA4EC381FAC3DC60
:1059800003C097F302C096F301C095F300C094F3EF
:1059900097C37CFA96C37BFA95C37AFA94C379FAD3
:1059A0002DDD02C063F301C062F363C363FA62C317
:1059B00064FA93C265FA92C266FA7FC27EFA7EC228
:1059C0007DFA92EC14F003C097F302C096F301C085
:1059D00095F300C094F397C380FA96C37FFA95C3FA
:1059E0007EFA94C37DFA51C384FA50C383FA4FC33D
:1059F00082FA4EC381FA87DC03C07CFA02C07BFACC
:105A000001C07AFA00C079FAC2C47EFAC1C47DFA34
:105A100092EC14F07CCA80FA7BCA7FFA7ACA7EFACA
:105A200079CA7DFA03C084FA02C083FA01C082FAFF
:105A300000C081FA68DC03C097F302C096F301C08E
:105A400095F300C094F397C37CFA96C37BFA95C391
:105A50007AFA94C379FAD2DC02C063F301C062F32C
:105A600063C367FA62C368FA81C27EFA80C27DFAB4
:105A700092EC14F003C097F302C096F301C095F3C3
:105A800000C094F397C380FA96C37FFA95C37EFA59
:105A900094C37DFA51C384FA50C383FA4FC382FA88
:105AA0004EC381FA30DC03C07CFA02C07BFA01C02D
:105AB0007AFA00C079FAC2C47EFAC1C47DFA92ECC7
:105AC00014F07CCA80FA7BCA7FFA7ACA7EFA79CA55
:105AD0007DFA03C084FA02C083FA01C082FA00C0D2
